{
  "_format": "hh-sol-artifact-1",
  "contractName": "gameReward",
  "sourceName": "contracts/gameReward.sol",
  "abi": [
    {
      "inputs": [
        {
          "internalType": "contract IERC20",
          "name": "_token",
          "type": "address"
        }
      ],
      "stateMutability": "nonpayable",
      "type": "constructor"
    },
    {
      "inputs": [
        {
          "internalType": "address",
          "name": "target",
          "type": "address"
        }
      ],
      "name": "AddressEmptyCode",
      "type": "error"
    },
    {
      "inputs": [
        {
          "internalType": "address",
          "name": "account",
          "type": "address"
        }
      ],
      "name": "AddressInsufficientBalance",
      "type": "error"
    },
    {
      "inputs": [],
      "name": "FailedInnerCall",
      "type": "error"
    },
    {
      "inputs": [
        {
          "internalType": "address",
          "name": "owner",
          "type": "address"
        }
      ],
      "name": "OwnableInvalidOwner",
      "type": "error"
    },
    {
      "inputs": [
        {
          "internalType": "address",
          "name": "account",
          "type": "address"
        }
      ],
      "name": "OwnableUnauthorizedAccount",
      "type": "error"
    },
    {
      "inputs": [
        {
          "internalType": "address",
          "name": "token",
          "type": "address"
        }
      ],
      "name": "SafeERC20FailedOperation",
      "type": "error"
    },
    {
      "anonymous": false,
      "inputs": [
        {
          "indexed": true,
          "internalType": "address",
          "name": "previousOwner",
          "type": "address"
        },
        {
          "indexed": true,
          "internalType": "address",
          "name": "newOwner",
          "type": "address"
        }
      ],
      "name": "OwnershipTransferred",
      "type": "event"
    },
    {
      "anonymous": false,
      "inputs": [
        {
          "indexed": false,
          "internalType": "address",
          "name": "",
          "type": "address"
        },
        {
          "indexed": false,
          "internalType": "uint256",
          "name": "",
          "type": "uint256"
        }
      ],
      "name": "setGameRewardClaimEvent",
      "type": "event"
    },
    {
      "anonymous": false,
      "inputs": [
        {
          "indexed": false,
          "internalType": "uint256",
          "name": "",
          "type": "uint256"
        }
      ],
      "name": "setMaxGamersEvent",
      "type": "event"
    },
    {
      "anonymous": false,
      "inputs": [
        {
          "indexed": false,
          "internalType": "uint256",
          "name": "",
          "type": "uint256"
        }
      ],
      "name": "setOrderListEvent",
      "type": "event"
    },
    {
      "inputs": [],
      "name": "gameRewardClaim",
      "outputs": [],
      "stateMutability": "nonpayable",
      "type": "function"
    },
    {
      "inputs": [],
      "name": "getMaxGamers",
      "outputs": [
        {
          "internalType": "uint256",
          "name": "",
          "type": "uint256"
        }
      ],
      "stateMutability": "view",
      "type": "function"
    },
    {
      "inputs": [
        {
          "internalType": "address",
          "name": "_gamer",
          "type": "address"
        }
      ],
      "name": "getUserGameReward",
      "outputs": [
        {
          "internalType": "uint256",
          "name": "",
          "type": "uint256"
        },
        {
          "internalType": "uint256",
          "name": "",
          "type": "uint256"
        }
      ],
      "stateMutability": "view",
      "type": "function"
    },
    {
      "inputs": [],
      "name": "owner",
      "outputs": [
        {
          "internalType": "address",
          "name": "",
          "type": "address"
        }
      ],
      "stateMutability": "view",
      "type": "function"
    },
    {
      "inputs": [],
      "name": "renounceOwnership",
      "outputs": [],
      "stateMutability": "nonpayable",
      "type": "function"
    },
    {
      "inputs": [
        {
          "internalType": "uint256",
          "name": "_maxGamers",
          "type": "uint256"
        }
      ],
      "name": "setMaxGamers",
      "outputs": [],
      "stateMutability": "nonpayable",
      "type": "function"
    },
    {
      "inputs": [
        {
          "internalType": "address[]",
          "name": "_gamerList",
          "type": "address[]"
        },
        {
          "internalType": "uint256",
          "name": "_listLength",
          "type": "uint256"
        }
      ],
      "name": "setOrderList",
      "outputs": [],
      "stateMutability": "nonpayable",
      "type": "function"
    },
    {
      "inputs": [],
      "name": "topTierRewardClaim",
      "outputs": [],
      "stateMutability": "nonpayable",
      "type": "function"
    },
    {
      "inputs": [
        {
          "internalType": "address",
          "name": "newOwner",
          "type": "address"
        }
      ],
      "name": "transferOwnership",
      "outputs": [],
      "stateMutability": "nonpayable",
      "type": "function"
    }
  ],
  "bytecode": "0x60a060405234801561001057600080fd5b5060405161092838038061092883398101604081905261002f916100c0565b338061005557604051631e4fbdf760e01b81526000600482015260240160405180910390fd5b61005e81610070565b506001600160a01b03166080526100f0565b600080546001600160a01b038381166001600160a01b0319831681178455604051919092169283917f8be0079c531659141344cd1fd0a4f28419497f9722a3daafe3b4186f6b6457e09190a35050565b6000602082840312156100d257600080fd5b81516001600160a01b03811681146100e957600080fd5b9392505050565b60805161081d61010b60003960006102c1015261081d6000f3fe608060405234801561001057600080fd5b50600436106100935760003560e01c8063715018a611610066578063715018a6146100de5780638da5cb5b146100e6578063bc24f64b146100ad578063d032410b14610101578063f2fde38b1461014157600080fd5b8063060da05e146100985780633395a827146100ad5780633e6afff3146100b557806355770bba146100c8575b600080fd5b6100ab6100a6366004610660565b610154565b005b6100ab610259565b6100ab6100c336600461072b565b61032d565b6002546040519081526020015b60405180910390f35b6100ab61036a565b6000546040516001600160a01b0390911681526020016100d5565b61012c61010f366004610744565b6001600160a01b0316600090815260046020526040902054908190565b604080519283526020830191909152016100d5565b6100ab61014f366004610744565b61037e565b61015c6103bc565b600254811461018c5760405162461bcd60e51b815260206004820152600060248201526044015b60405180910390fd5b808251146101b65760405162461bcd60e51b81526020600482015260006024820152604401610183565b60005b8181101561022157600154600360008584815181106101da576101da61075f565b60200260200101516001600160a01b03166001600160a01b0316815260200190815260200160002060010160008282546102149190610775565b90915550506001016101b9565b506040518181527fc353e4f94299d3ceeee75e8f985ffdd074cd7cc1dd87716b86e7e2143b705de59060200160405180910390a15050565b336000908152600460205260409020546102a65760405162461bcd60e51b815260206004820152600e60248201526d726577617264206973207a65726f60901b6044820152606401610183565b3360008181526004602052604081208054919055906102f0907f00000000000000000000000000000000000000000000000000000000000000006001600160a01b031690836103e9565b60408051338152602081018390527f56f2cade0f848859078d9babb8dd72e3701cfbcfece7e9915105c7597ac27ce591015b60405180910390a150565b6103356103bc565b60028190556040518181527febad9f510f92c8ad6157c9f8469a876cf70f56b6d475322db6a8fd81ba4ed2e790602001610322565b6103726103bc565b61037c6000610440565b565b6103866103bc565b6001600160a01b0381166103b057604051631e4fbdf760e01b815260006004820152602401610183565b6103b981610440565b50565b6000546001600160a01b0316331461037c5760405163118cdaa760e01b8152336004820152602401610183565b604080516001600160a01b038416602482015260448082018490528251808303909101815260649091019091526020810180516001600160e01b031663a9059cbb60e01b17905261043b908490610490565b505050565b600080546001600160a01b038381166001600160a01b0319831681178455604051919092169283917f8be0079c531659141344cd1fd0a4f28419497f9722a3daafe3b4186f6b6457e09190a35050565b60006104a56001600160a01b038416836104f3565b905080516000141580156104ca5750808060200190518101906104c89190610796565b155b1561043b57604051635274afe760e01b81526001600160a01b0384166004820152602401610183565b60606105018383600061050a565b90505b92915050565b60608147101561052f5760405163cd78605960e01b8152306004820152602401610183565b600080856001600160a01b0316848660405161054b91906107b8565b60006040518083038185875af1925050503d8060008114610588576040519150601f19603f3d011682016040523d82523d6000602084013e61058d565b606091505b509150915061059d8683836105a9565b925050505b9392505050565b6060826105be576105b982610605565b6105a2565b81511580156105d557506001600160a01b0384163b155b156105fe57604051639996b31560e01b81526001600160a01b0385166004820152602401610183565b50806105a2565b8051156106155780518082602001fd5b604051630a12f52160e11b815260040160405180910390fd5b634e487b7160e01b600052604160045260246000fd5b80356001600160a01b038116811461065b57600080fd5b919050565b6000806040838503121561067357600080fd5b823567ffffffffffffffff8082111561068b57600080fd5b818501915085601f83011261069f57600080fd5b81356020828211156106b3576106b361062e565b8160051b604051601f19603f830116810181811086821117156106d8576106d861062e565b6040529283528183019350848101820192898411156106f657600080fd5b948201945b8386101561071b5761070c86610644565b855294820194938201936106fb565b9997909101359750505050505050565b60006020828403121561073d57600080fd5b5035919050565b60006020828403121561075657600080fd5b61050182610644565b634e487b7160e01b600052603260045260246000fd5b8082018082111561050457634e487b7160e01b600052601160045260246000fd5b6000602082840312156107a857600080fd5b815180151581146105a257600080fd5b6000825160005b818110156107d957602081860181015185830152016107bf565b50600092019182525091905056fea26469706673582212205e4579d5d70016cf619bd914ea1e50ad063ed3f08970df1e85e49e87f6d8863864736f6c63430008180033",
  "linkReferences": {},
  "deployedLinkReferences": {}
}