{
  "_format": "hh-sol-artifact-1",
  "contractName": "MoondogStaking",
  "sourceName": "contracts/moonDogStaking.sol",
  "abi": [
    {
      "inputs": [
        {
          "internalType": "contract IERC20",
          "name": "_token",
          "type": "address"
        }
      ],
      "stateMutability": "nonpayable",
      "type": "constructor"
    },
    {
      "inputs": [
        {
          "internalType": "address",
          "name": "target",
          "type": "address"
        }
      ],
      "name": "AddressEmptyCode",
      "type": "error"
    },
    {
      "inputs": [
        {
          "internalType": "address",
          "name": "account",
          "type": "address"
        }
      ],
      "name": "AddressInsufficientBalance",
      "type": "error"
    },
    {
      "inputs": [],
      "name": "FailedInnerCall",
      "type": "error"
    },
    {
      "inputs": [
        {
          "internalType": "address",
          "name": "owner",
          "type": "address"
        }
      ],
      "name": "OwnableInvalidOwner",
      "type": "error"
    },
    {
      "inputs": [
        {
          "internalType": "address",
          "name": "account",
          "type": "address"
        }
      ],
      "name": "OwnableUnauthorizedAccount",
      "type": "error"
    },
    {
      "inputs": [],
      "name": "ReentrancyGuardReentrantCall",
      "type": "error"
    },
    {
      "inputs": [
        {
          "internalType": "address",
          "name": "token",
          "type": "address"
        }
      ],
      "name": "SafeERC20FailedOperation",
      "type": "error"
    },
    {
      "anonymous": false,
      "inputs": [
        {
          "indexed": true,
          "internalType": "address",
          "name": "previousOwner",
          "type": "address"
        },
        {
          "indexed": true,
          "internalType": "address",
          "name": "newOwner",
          "type": "address"
        }
      ],
      "name": "OwnershipTransferred",
      "type": "event"
    },
    {
      "anonymous": false,
      "inputs": [
        {
          "indexed": false,
          "internalType": "address",
          "name": "",
          "type": "address"
        },
        {
          "indexed": false,
          "internalType": "bool",
          "name": "",
          "type": "bool"
        },
        {
          "indexed": false,
          "internalType": "uint256",
          "name": "",
          "type": "uint256"
        }
      ],
      "name": "pauseEvent",
      "type": "event"
    },
    {
      "anonymous": false,
      "inputs": [
        {
          "indexed": false,
          "internalType": "address",
          "name": "",
          "type": "address"
        },
        {
          "indexed": false,
          "internalType": "uint256",
          "name": "",
          "type": "uint256"
        },
        {
          "indexed": false,
          "internalType": "uint256",
          "name": "",
          "type": "uint256"
        }
      ],
      "name": "rewardClaimEvent",
      "type": "event"
    },
    {
      "anonymous": false,
      "inputs": [
        {
          "indexed": false,
          "internalType": "address",
          "name": "",
          "type": "address"
        },
        {
          "indexed": false,
          "internalType": "uint256",
          "name": "",
          "type": "uint256"
        }
      ],
      "name": "stakingEvent",
      "type": "event"
    },
    {
      "anonymous": false,
      "inputs": [
        {
          "indexed": false,
          "internalType": "address",
          "name": "",
          "type": "address"
        },
        {
          "indexed": false,
          "internalType": "uint256",
          "name": "",
          "type": "uint256"
        }
      ],
      "name": "unStakingEvent",
      "type": "event"
    },
    {
      "anonymous": false,
      "inputs": [
        {
          "indexed": false,
          "internalType": "address",
          "name": "",
          "type": "address"
        },
        {
          "indexed": false,
          "internalType": "uint256",
          "name": "",
          "type": "uint256"
        },
        {
          "indexed": false,
          "internalType": "uint256",
          "name": "",
          "type": "uint256"
        }
      ],
      "name": "withdrawEvent",
      "type": "event"
    },
    {
      "inputs": [],
      "name": "getContractBalance",
      "outputs": [
        {
          "internalType": "uint256",
          "name": "",
          "type": "uint256"
        }
      ],
      "stateMutability": "view",
      "type": "function"
    },
    {
      "inputs": [],
      "name": "getCurrentIndex",
      "outputs": [
        {
          "internalType": "uint256",
          "name": "",
          "type": "uint256"
        }
      ],
      "stateMutability": "view",
      "type": "function"
    },
    {
      "inputs": [
        {
          "internalType": "uint256",
          "name": "_index",
          "type": "uint256"
        }
      ],
      "name": "getTotalByTime",
      "outputs": [
        {
          "internalType": "uint256",
          "name": "_totalByTime",
          "type": "uint256"
        }
      ],
      "stateMutability": "view",
      "type": "function"
    },
    {
      "inputs": [],
      "name": "getTotalStaking",
      "outputs": [
        {
          "internalType": "uint256",
          "name": "",
          "type": "uint256"
        }
      ],
      "stateMutability": "view",
      "type": "function"
    },
    {
      "inputs": [
        {
          "internalType": "address",
          "name": "_sender",
          "type": "address"
        }
      ],
      "name": "getUnStakingTime",
      "outputs": [
        {
          "internalType": "uint256",
          "name": "_unStakingTime",
          "type": "uint256"
        }
      ],
      "stateMutability": "view",
      "type": "function"
    },
    {
      "inputs": [
        {
          "internalType": "address",
          "name": "_staker",
          "type": "address"
        }
      ],
      "name": "getUserClaimedReward",
      "outputs": [
        {
          "internalType": "uint256",
          "name": "",
          "type": "uint256"
        }
      ],
      "stateMutability": "view",
      "type": "function"
    },
    {
      "inputs": [
        {
          "internalType": "address",
          "name": "_sender",
          "type": "address"
        }
      ],
      "name": "getUserInfo",
      "outputs": [
        {
          "components": [
            {
              "internalType": "uint256",
              "name": "stakingAmount",
              "type": "uint256"
            },
            {
              "internalType": "uint256",
              "name": "calReward",
              "type": "uint256"
            },
            {
              "internalType": "uint256",
              "name": "claimedReward",
              "type": "uint256"
            },
            {
              "internalType": "uint256",
              "name": "indexByTime",
              "type": "uint256"
            },
            {
              "internalType": "uint256",
              "name": "theStakingTime",
              "type": "uint256"
            }
          ],
          "internalType": "struct IStaking.UserInfo",
          "name": "",
          "type": "tuple"
        }
      ],
      "stateMutability": "view",
      "type": "function"
    },
    {
      "inputs": [
        {
          "internalType": "address",
          "name": "_staker",
          "type": "address"
        }
      ],
      "name": "getUserReward",
      "outputs": [
        {
          "internalType": "uint256",
          "name": "",
          "type": "uint256"
        }
      ],
      "stateMutability": "view",
      "type": "function"
    },
    {
      "inputs": [
        {
          "internalType": "address",
          "name": "_staker",
          "type": "address"
        }
      ],
      "name": "getUserStakingAmount",
      "outputs": [
        {
          "internalType": "uint256",
          "name": "",
          "type": "uint256"
        }
      ],
      "stateMutability": "view",
      "type": "function"
    },
    {
      "inputs": [
        {
          "internalType": "address",
          "name": "_staker",
          "type": "address"
        },
        {
          "internalType": "uint256",
          "name": "_index",
          "type": "uint256"
        }
      ],
      "name": "getUserStakingByTime",
      "outputs": [
        {
          "internalType": "uint256",
          "name": "",
          "type": "uint256"
        }
      ],
      "stateMutability": "view",
      "type": "function"
    },
    {
      "inputs": [],
      "name": "owner",
      "outputs": [
        {
          "internalType": "address",
          "name": "",
          "type": "address"
        }
      ],
      "stateMutability": "view",
      "type": "function"
    },
    {
      "inputs": [],
      "name": "renounceOwnership",
      "outputs": [],
      "stateMutability": "nonpayable",
      "type": "function"
    },
    {
      "inputs": [],
      "name": "rewardClaim",
      "outputs": [],
      "stateMutability": "nonpayable",
      "type": "function"
    },
    {
      "inputs": [
        {
          "internalType": "bool",
          "name": "_enabled",
          "type": "bool"
        }
      ],
      "name": "setPause",
      "outputs": [],
      "stateMutability": "nonpayable",
      "type": "function"
    },
    {
      "inputs": [
        {
          "internalType": "uint256",
          "name": "_amount",
          "type": "uint256"
        }
      ],
      "name": "staking",
      "outputs": [],
      "stateMutability": "nonpayable",
      "type": "function"
    },
    {
      "inputs": [
        {
          "internalType": "address",
          "name": "newOwner",
          "type": "address"
        }
      ],
      "name": "transferOwnership",
      "outputs": [],
      "stateMutability": "nonpayable",
      "type": "function"
    },
    {
      "inputs": [
        {
          "internalType": "uint256",
          "name": "_amount",
          "type": "uint256"
        }
      ],
      "name": "unStaking",
      "outputs": [],
      "stateMutability": "nonpayable",
      "type": "function"
    },
    {
      "inputs": [],
      "name": "withdraw",
      "outputs": [],
      "stateMutability": "nonpayable",
      "type": "function"
    }
  ],
  "bytecode": "0x60c06040523480156200001157600080fd5b506040516200190138038062001901833981016040819052620000349162000136565b600160009081556001600160a01b0382166080523390829080621275006a034f086f3b33b6840000004260016003805460ff1916600183818111156200007e576200007e62000168565b021790555060049390935560059190915560065560075550506001600160a01b038116620000c657604051631e4fbdf760e01b81526000600482015260240160405180910390fd5b620000d181620000e4565b506001600160a01b031660a0526200017e565b600b80546001600160a01b038381166001600160a01b0319831681179093556040519116919082907f8be0079c531659141344cd1fd0a4f28419497f9722a3daafe3b4186f6b6457e090600090a35050565b6000602082840312156200014957600080fd5b81516001600160a01b03811681146200016157600080fd5b9392505050565b634e487b7160e01b600052602160045260246000fd5b60805160a051611741620001c06000396000818161039101528181610419015261057001526000818161080301528181610cb7015261104101526117416000f3fe608060405234801561001057600080fd5b50600436106101165760003560e01c80636409f921116100a25780638da5cb5b116100715780638da5cb5b14610256578063bedb86fb14610271578063c379e28714610284578063c75ebb82146102ba578063f2fde38b146102cd57600080fd5b80636409f9211461022b5780636f9fb98a14610233578063715018a61461023b57806386f43a411461024357600080fd5b80633ccfd60b116100e95780633ccfd60b146101875780634535aed51461018f578063522c7e08146101bb57806358d57545146101ce5780636386c1c7146101d657600080fd5b80630d9005ae1461011b5780631aee9266146101365780631dbb2a22146101495780632d993bc51461015e575b600080fd5b6101236102e0565b6040519081526020015b60405180910390f35b61012361014436600461154d565b6102ef565b61015c61015736600461154d565b610331565b005b61012361016c36600461157d565b6001600160a01b031660009081526008602052604090205490565b61015c610371565b61012361019d36600461157d565b6001600160a01b031660009081526008602052604090206002015490565b6101236101c936600461157d565b610440565b600154610123565b6101e96101e436600461157d565b610499565b60405161012d9190600060a082019050825182526020830151602083015260408301516040830152606083015160608301526080830151608083015292915050565b61015c610523565b610123610558565b61015c6105e3565b61015c61025136600461154d565b6105f5565b600b546040516001600160a01b03909116815260200161012d565b61015c61027f3660046115a6565b610629565b6101236102923660046115c3565b6001600160a01b03919091166000908152600a60209081526040808320938352929052205490565b6101236102c836600461157d565b610692565b61015c6102db36600461157d565b6106fc565b60006102ea610737565b905090565b600081815260096020526040812054810361031b57505060025460009081526009602052604090205490565b506000818152600960205260409020545b919050565b600b54600160a01b900460ff16156103645760405162461bcd60e51b815260040161035b906115ed565b60405180910390fd5b61036e3382610755565b50565b610379610a8b565b6040516370a0823160e01b81523060048201526000907f00000000000000000000000000000000000000000000000000000000000000006001600160a01b0316906370a0823190602401602060405180830381865afa1580156103e0573d6000803e3d6000fd5b505050506040513d601f19601f82011682018060405250810190610404919061161b565b9050801561036e5761036e6001600160a01b037f0000000000000000000000000000000000000000000000000000000000000000163383610ab8565b6001600160a01b038116600090815260086020526040812060040154810361046a57506000919050565b6005546001600160a01b038316600090815260086020526040902060040154610493919061164a565b92915050565b6104cb6040518060a0016040528060008152602001600081526020016000815260200160008152602001600081525090565b506001600160a01b0316600090815260086020908152604091829020825160a0810184528154815260018201549281019290925260028101549282019290925260038201546060820152600490910154608082015290565b600b54600160a01b900460ff161561054d5760405162461bcd60e51b815260040161035b906115ed565b61055633610b1c565b565b6040516370a0823160e01b81523060048201526000907f00000000000000000000000000000000000000000000000000000000000000006001600160a01b0316906370a0823190602401602060405180830381865afa1580156105bf573d6000803e3d6000fd5b505050506040513d601f19601f820116820180604052508101906102ea919061161b565b6105eb610a8b565b6105566000610d31565b600b54600160a01b900460ff161561061f5760405162461bcd60e51b815260040161035b906115ed565b61036e3382610d83565b610631610a8b565b600b805460ff60a01b1916600160a01b8315159081029190911790915560408051338152602081019290925242908201527f2a37afe8f0b839a99e318a506c99271f063ee7ff448923028a472fd5f337b6029060600160405180910390a150565b6005546001600160a01b038216600090815260086020526040812060040154909142916106bf919061164a565b11156106cd57506000919050565b6001600160a01b0382166000908152600860205260409020600101546106f2836110b5565b610493919061164a565b610704610a8b565b6001600160a01b03811661072e57604051631e4fbdf760e01b81526000600482015260240161035b565b61036e81610d31565b6005546007546000919061074b904261165d565b6102ea9190611670565b61075d6110e9565b6007544210156107af5760405162461bcd60e51b815260206004820152601d60248201527f49742773206e6f742074696d6520666f72205374616b696e6720796574000000604482015260640161035b565b600081116107f65760405162461bcd60e51b815260206004820152601460248201527339ba30b5b4b7339030b6b7bab73a1032b93937b960611b604482015260640161035b565b61082b6001600160a01b037f000000000000000000000000000000000000000000000000000000000000000016833084611113565b6001600160a01b03821660009081526008602052604090205415610908576000610854836110b5565b9050801561088d576001600160a01b0383166000908152600860205260408120600101805483929061088790849061164a565b90915550505b6001600160a01b0383166000908152600860205260409020600401546002906108b6904261165d565b6108c09190611670565b6001600160a01b0384166000908152600860205260409020600401546108e6919061164a565b6001600160a01b03841660009081526008602052604090206004015550610928565b6001600160a01b0382166000908152600860205260409020426004909101555b60096000610934610737565b81526020019081526020016000205460000361096b5760015460096000610959610737565b81526020810191909152604001600020555b610973610737565b6001600160a01b038316600090815260086020526040812060038101929092558154839291906109a490849061164a565b90915550506001600160a01b038216600090815260086020908152604080832054600a909252822090916109d6610737565b81526020019081526020016000208190555080600160008282546109fa919061164a565b9091555081905060096000610a0d610737565b81526020019081526020016000206000828254610a2a919061164a565b90915550610a389050610737565b600255604080516001600160a01b0384168152602081018390527fde89184e0ffa3923637e3102b0fcaf380ef3e39ba777230ee6a6ccba21985055910160405180910390a1610a876001600055565b5050565b600b546001600160a01b031633146105565760405163118cdaa760e01b815233600482015260240161035b565b6040516001600160a01b03838116602483015260448201839052610b1791859182169063a9059cbb906064015b604051602081830303815290604052915060e01b6020820180516001600160e01b038381831617835250505050611152565b505050565b610b246110e9565b6005546001600160a01b038216600090815260086020526040902060040154610b4d919061164a565b421015610ba65760405162461bcd60e51b815260206004820152602160248201527f49742773206e6f742074696d6520666f7220726577617264436c61696d2079656044820152601d60fa1b606482015260840161035b565b6000610bb1826110b5565b90508015610c0957610bc1610737565b6001600160a01b038316600090815260086020908152604080832060038101949094559254600a90915291812090610bf7610737565b81526020810191909152604001600020555b6001600160a01b038216600090815260086020526040902060010154610c2f908261164a565b905060008111610c725760405162461bcd60e51b815260206004820152600e60248201526d726577617264206973207a65726f60901b604482015260640161035b565b6001600160a01b0382166000908152600860205260408120600181018290556002018054839290610ca490849061164a565b90915550610cde90506001600160a01b037f0000000000000000000000000000000000000000000000000000000000000000168383610ab8565b604080516001600160a01b038416815260208101839052428183015290517f51730a1d9334940951b5fce420330429cb0e33a25972c4ce8019419fe0d02dd39181900360600190a15061036e6001600055565b600b80546001600160a01b038381166001600160a01b0319831681179093556040519116919082907f8be0079c531659141344cd1fd0a4f28419497f9722a3daafe3b4186f6b6457e090600090a35050565b610d8b6110e9565b6001600160a01b038216600090815260086020526040902054811115610e0d5760405162461bcd60e51b815260206004820152603160248201527f756e7374616b696e6720616d6f756e74206d757374206265206d6f7265207468604482015270185b881c995c5d595cdd08185b5bdd5b9d607a1b606482015260840161035b565b6005546001600160a01b038316600090815260086020526040902060040154610e36919061164a565b421015610e855760405162461bcd60e51b815260206004820152601f60248201527f49742773206e6f742074696d6520666f7220756e5374616b696e672079657400604482015260640161035b565b6000610e90836110b5565b905060096000610e9e610737565b815260200190815260200160002054600003610ed55760015460096000610ec3610737565b81526020810191909152604001600020555b6001600160a01b03831660009081526008602052604081208054849290610efd90849061165d565b90915550610f0b9050610737565b6001600160a01b03841660009081526008602052604081206003019190915560018054849290610f3c90849061165d565b9091555082905060096000610f4f610737565b81526020019081526020016000206000828254610f6c919061165d565b90915550506001600160a01b038316600090815260086020908152604080832054600a90925282209091610f9e610737565b8152602001908152602001600020819055508060086000856001600160a01b03166001600160a01b031681526020019081526020016000206001016000828254610fe8919061164a565b90915550506001600160a01b0383166000908152600860205260408120549003611029576001600160a01b0383166000908152600860205260408120600401555b611031610737565b6002556110686001600160a01b037f0000000000000000000000000000000000000000000000000000000000000000168484610ab8565b604080516001600160a01b0385168152602081018490527f8a57c22a0451c05a1936bf21232a91fc33fcfd395aea8aaf5f9785f3d75ca915910160405180910390a150610a876001600055565b60008060035460ff1660018111156110cf576110cf611692565b146110e2576110dd826111b5565b610493565b6000610493565b60026000540361110c57604051633ee5aeb560e01b815260040160405180910390fd5b6002600055565b6040516001600160a01b03848116602483015283811660448301526064820183905261114c9186918216906323b872dd90608401610ae5565b50505050565b60006111676001600160a01b03841683611416565b9050805160001415801561118c57508080602001905181019061118a91906116a8565b155b15610b1757604051635274afe760e01b81526001600160a01b038416600482015260240161035b565b6000806111c0610737565b90508015806111e957506001600160a01b03831660009081526008602052604090206003015481145b156111f75750600092915050565b6001600160a01b0383166000908152600a602090815260408083206008835281842060030154845290915281205490036112345750600092915050565b6001600160a01b03831660009081526008602090815260408083206003015483526009909152812054810361127b57506002546000908152600960205260409020546112a6565b506001600160a01b038316600090815260086020908152604080832060030154835260099091529020545b6001600160a01b0384166000818152600a602090815260408083206008808452828520600301548086529184529184205494845291525b8481101561140c576001600160a01b0387166000908152600860205260409020600301548103611354576006546001600160a01b0388166000908152600a602090815260408083208584529091529020548591611339916116c5565b6113439190611670565b61134d908361164a565b9150611404565b6000818152600960205260408120548190810361137357859150611385565b60008381526009602052604090205491505b6001600160a01b0389166000908152600a6020908152604080832086845290915281205490036113b65750836113dc565b506001600160a01b0388166000908152600a602090815260408083208584529091529020545b60065482906113eb90836116c5565b6113f59190611670565b6113ff908561164a565b935050505b6001016112dd565b5095945050505050565b60606114248383600061142b565b9392505050565b6060814710156114505760405163cd78605960e01b815230600482015260240161035b565b600080856001600160a01b0316848660405161146c91906116dc565b60006040518083038185875af1925050503d80600081146114a9576040519150601f19603f3d011682016040523d82523d6000602084013e6114ae565b606091505b50915091506114be8683836114c8565b9695505050505050565b6060826114dd576114d882611524565b611424565b81511580156114f457506001600160a01b0384163b155b1561151d57604051639996b31560e01b81526001600160a01b038516600482015260240161035b565b5080611424565b8051156115345780518082602001fd5b604051630a12f52160e11b815260040160405180910390fd5b60006020828403121561155f57600080fd5b5035919050565b80356001600160a01b038116811461032c57600080fd5b60006020828403121561158f57600080fd5b61142482611566565b801515811461036e57600080fd5b6000602082840312156115b857600080fd5b813561142481611598565b600080604083850312156115d657600080fd5b6115df83611566565b946020939093013593505050565b60208082526014908201527343757272656e742070617573652073746174757360601b604082015260600190565b60006020828403121561162d57600080fd5b5051919050565b634e487b7160e01b600052601160045260246000fd5b8082018082111561049357610493611634565b8181038181111561049357610493611634565b60008261168d57634e487b7160e01b600052601260045260246000fd5b500490565b634e487b7160e01b600052602160045260246000fd5b6000602082840312156116ba57600080fd5b815161142481611598565b808202811582820484141761049357610493611634565b6000825160005b818110156116fd57602081860181015185830152016116e3565b50600092019182525091905056fea26469706673582212204d3b745ee2e02db21341d39529429545a00f644cadbbd837f6604b0e1f599d9b64736f6c63430008180033",
  "linkReferences": {},
  "deployedLinkReferences": {}
}